:020000040800F2
:10000000000001200D0300085D0300085D030008E7
:100010005D0300085D0300085D03000800000000A8
:100020000000000000000000000000005D03000868
:100030005D030008000000005D0300085D03000888
:10004000000000005D0300085D0300085D03000878
:100050005D0300085D0300085D0300085D03000800
:100060005D0300085D0300085D0300085D030008F0
:100070005D0300085D0300085D0300085D030008E0
:100080005D0300085D0300085D0300080000000038
:100090000000000000000000000000005D030008F8
:1000A0005D0300085D0300085D0300085D030008B0
:1000B0005D0300085D0300085D0300085D030008A0
:1000C0005D0300085D0300085D0300085D03000890
:1000D0005D0300085D0300085D03000800000000E8
:1000E000E50200085D0300085D0300080000000051
:1000F0000000000000000000000000005D03000898
:10010000000000005D0300085D0300085D030008B7
:1001100000000000000000000000000000000000DF
:100120005D0300085D0300085D0300085D0300082F
:100130005D03000800000000000000000000000057
:100140000000000000000000000000005D03000847
:100150005D0300085D0300085D0300085D030008FF
:100160005D0300085D0300080000000000000000BF
:10017000000000000000000000000000000000007F
:10018000000000000000000000000000000000006F
:040190005D03000803
:1001940010B5054C237833B9044B13B10448AFF3BD
:1001A40000800123237010BD000000200000000027
:1001B400A803000808B5034B1BB103490348AFF378
:1001C400008008BD0000000004000020A80300080F
:1001D40080B483B000AF0346FB7197F90730002B5E
:1001E4000BDBFB7903F01F02074997F907305B0922
:1001F400012000FA02F241F8232000BF0C37BD466B
:100204005DF8047B704700BF00E100E080B500AFFB
:1002140072B600BF184B1B6B174A43F004031363F9
:10022400164B1B68154A23F080631360134B1B683D
:10023400124A23F0006313600F4B5B6C0E4A43F4C5
:10024400804353640E4B5B690D4A43F020035361B2
:100254000C4B1B680B4A43F400531360094BDB68D7
:10026400084A43F40053D3602820FFF7B1FF62B675
:1002740000BF00BF80BD00BF00380240000802403C
:1002840000380140003C014080B500AF0A4B1B6BB5
:10029400094A43F001031363084B1B68074A43F4FC
:1002A40080631360054B1B68044A23F400631360E6
:1002B400FFF7ACFF00BFFDE700380240000002403A
:1002C40080B400AF054B5B69044A83F0200353619B
:1002D40000BFBD465DF8047B704700BF00000240CC
:1002E40080B500AF074B5B6903F40053002B07D0C4
:1002F400044B5B69034A23F400535361FFF7E0FFA7
:1003040000BF80BD003C01400D488546AFF300802E
:100314000C480D490D4A002302E0D458C45004335C
:10032400C4188C42F9D30A4A0A4C002301E0136032
:100334000432A242FBD300F011F8FFF7A5FFFEE759
:10034400000001200000002000000020C803000875
:10035400000000201C000020FEE7000070B50D4DD9
:100364000D4C641BA4100026A64209D10B4D0C4C65
:1003740000F018F8641BA4100026A64205D170BD35
:1003840055F8043B98470136EEE755F8043B984787
:100394000136F2E7C0030008C0030008C0030008E8
:1003A400C4030008F8B500BFF8BC08BC9E467047FB
:0C03B400F8B500BFF8BC08BC9E467047BE
:0403C000B901000877
:0403C4009501000897
:040000050800030DDF
:00000001FF
