:020000040800F2
:1000000000000120F9030008490400084904000821
:1000100049040008490400084904000800000000E1
:10002000000000000000000000000000490400087B
:1000300049040008000000004904000849040008C1
:1000400000000000490400084904000849040008B1
:10005000490400084904000849040008490400084C
:10006000490400084904000849040008490400083C
:10007000490400084904000849040008490400082C
:100080004904000849040008490400080000000071
:10009000000000000000000000000000490400080B
:1000A00049040008490400084904000849040008FC
:1000B00049040008490400084904000849040008EC
:1000C00049040008490400084904000849040008DC
:1000D0004904000849040008490400080000000021
:1000E0004904000849040008490400080000000011
:1000F00000000000000000000000000049040008AB
:1001000000000000490400084904000849040008F0
:1001100000000000000000000000000000000000DF
:10012000490400084904000849040008490400087B
:10013000490400080000000000000000000000006A
:10014000000000000000000000000000490400085A
:10015000490400084904000849040008490400084B
:1001600049040008490400080000000000000000E5
:10017000000000000000000000000000000000007F
:10018000000000000000000000000000000000006F
:040190004904000816
:1001940010B5054C237833B9044B13B10448AFF3BD
:1001A40000800123237010BD000000200000000027
:1001B4009404000808B5034B1BB103490348AFF38B
:1001C400008008BD00000000040000209404000822
:1001D40080B582B000AF084B7B6000F00FF800F0F0
:1001E40063F800F0E7F83B1D0121184600F0AAF877
:1001F40000F0F0F800BFF4E7AC04000880B400AFEE
:10020400264B1B6B254A43F001031363244B1B68E5
:10021400234A23F480631360214B1B68204A43F470
:10022400006313601E4B1B681D4A23F48053136044
:100234001B4B1B681A4A43F400531360184B1B688A
:10024400174A23F480431360154B1B68144A43F484
:1002540000431360124B1B68114A43F4802313605C
:100264000F4B1B680E4A23F4002313600D4B1B6ACB
:100274000C4A43F4A00313620A4B1B6A094A43F075
:10028400A0631362074B1B6A064A43F0A043136240
:1002940000BFBD465DF8047B704700BF00380240D4
:1002A400000002400004024080B400AF234B5B6CAA
:1002B400224A43F480535364214B1B68204A43F081
:1002C400080313601E4B1B681D4A23F010031360C0
:1002D4001B4B1B681A4A23F020031360184B1B683E
:1002E400174A23F480631360154B1B68144A23F0E8
:1002F40080031360124B1B68114A43F0040313601C
:100304000F4B1B680E4A23F4006313600C4B1B68ED
:100314000B4A43F480731360094B1B68084A43F487
:1003240000731360064B1B68054A43F040031360D7
:1003340000BFBD465DF8047B704700BF0038024033
:100344000030014080B485B000AF7860396000238C
:10035400FB600FE000BF164B9B6803F00203002B09
:10036400F9D07A68FB6813441A78114BDA60FB6899
:100374000133FB60FA683B689A42EBD300BF0C4B35
:100384009B6803F00203002BF9D000BF084B9B6865
:1003940003F08003002BF9D1054BDB68FB72044B9F
:1003A4009B68FB7200BF1437BD465DF8047B704741
:1003B4000030014080B400AF054B5B69044A23F46C
:1003C4000073536100BFBD465DF8047B704700BFF6
:1003D4000000024080B400AF054B5B69044A43F45B
:1003E4000073536100BFBD465DF8047B704700BFD6
:1003F400000002400D488546AFF300800C480D49CB
:100404000D4A002302E0D458C4500433C4188C426B
:10041400F9D30A4A0A4C002301E013600432A242D1
:10042400FBD300F011F8FFF7D3FEFEE70000012034
:100434000000002000000020B80400080000002094
:100444001C000020FEE7000070B50D4D0D4C641B30
:10045400A4100026A64209D10B4D0C4C00F018F84C
:10046400641BA4100026A64205D170BD55F8043BB8
:1004740098470136EEE755F8043B98470136F2E712
:10048400B0040008B0040008B0040008B404000874
:10049400F8B500BFF8BC08BC9E467047F8B500BF6D
:0804A400F8BC08BC9E4670473D
:0404AC00410000000B
:0404B000B901000886
:0404B40095010008A6
:04000005080003F9F3
:00000001FF
