:020000040800F2
:1000000000000120F9060008490700084907000818
:1000100049070008490700084907000800000000D8
:100020000000000000000000000000004907000878
:1000300049070008000000004907000849070008B8
:1000400000000000490700084907000849070008A8
:100050004907000849070008490700084907000840
:100060004907000849070008490700084907000830
:100070004907000849070008490700084907000820
:100080004907000849070008490700080000000068
:100090000000000000000000000000005102000805
:1000A00049070008490700084907000849070008F0
:1000B00049070008490700084907000849070008E0
:1000C00049070008490700084907000849070008D0
:1000D0004907000849070008490700080000000018
:1000E0004907000849070008490700080000000008
:1000F00000000000000000000000000049070008A8
:1001000000000000490700084907000849070008E7
:1001100000000000000000000000000000000000DF
:10012000490700084907000849070008490700086F
:100130004907000800000000000000000000000067
:100140000000000000000000000000004907000857
:10015000490700084907000849070008490700083F
:1001600049070008490700080000000000000000DF
:10017000000000000000000000000000000000007F
:10018000000000000000000000000000000000006F
:040190004907000813
:1001940010B5054C237833B9044B13B10448AFF3BD
:1001A40000800123237010BD000000200000000027
:1001B400A407000808B5034B1BB103490348AFF378
:1001C400008008BD0000000004000020A40700080F
:1001D40080B586B000AF0121012000F045F807F199
:1001E4000C030C220021184600F0ADFA164BFB60FC
:1001F4000C233B7401237B7400233B750123FB74A4
:1002040007F10C031946002000F04AF83B460C2283
:100214000021184600F097FA0B4B3B6005233B7115
:1002240004237B710123FB713B461946012000F036
:1002340037F80121172000F08FF90F21172000F063
:100244000BFA00BFFDE700BF0004024080B500AF19
:10025400052000F02FFA0C21024800F067F900BFD6
:1002640080BD00BF0004024080B483B000AF0346E9
:100274000A46FB711346BB71BB79012B08D1074BAE
:100284001A6BFB79012101FA03F3044913430B634D
:1002940000BF0C37BD465DF8047B70470038024050
:1002A40080B485B000AF03463960FB710023FB6066
:1002B40000233B813B685B79032B1FD83B685B7948
:1002C4001A463B681B795B0002FA03F3FB603B6848
:1002D4001B681A683B681B79194603238B40DB4370
:1002E40019463B681B680A401A603B681B6819681A
:1002F4003B681B68FA680A431A6070E03B685B79E4
:10030400042B15D1864BDA683B681B791946012307
:100314008B4083491343CB60814B9A683B681B79BC
:10032400194601238B40DB437D4913408B6031E048
:100334003B685B79052B15D1794B9A683B681B792F
:10034400194601238B40764913438B60744BDA685A
:100354003B681B79194601238B40DB4370491340EA
:10036400CB6017E03B685B79062B13D16C4B9A6822
:100374003B681B79194601238B40694913438B6001
:10038400674BDA683B681B79194601238B40644943
:100394001343CB60634B5B6C624A43F48043536406
:1003A4003B681B799B08DBB23B723B681B7903F00B
:1003B4000303DBB27B72FA797B7A9B0002FA03F1C6
:1003C400594A3B7A023342F82310554B1A683B686A
:1003D4001B79194601238B40514913430B603B6839
:1003E4009B791A463B681B795B0002FA03F3FB60B6
:1003F4003B681B689A683B681B79194603238B404A
:10040400DB4319463B681B680A409A603B681B68DB
:1004140099683B681B68FA680A439A603B68DB7911
:100424001A463B681B795B0002FA03F3FB603B68E6
:100434001B68DA683B681B79194603238B40DB434E
:1004440019463B681B680A40DA603B681B68D96838
:100454003B681B68FA680A43DA603B681B7A1A46F1
:100464003B681B7902FA03F3FB603B681B685A681C
:100474003B681B79194601238B40DB4319463B68D3
:100484001B680A405A603B681B6859683B681B68D4
:10049400FA680A435A603B685B79022B39D13B689E
:1004A4005B7A1A463B681B799B0002FA03F3FB60F4
:1004B4003B681B79072B16D83B681B681A6A3B6894
:1004C4001B7919460F238B40DB4319463B681B6895
:1004D4000A401A623B681B68196A3B681B68FA6821
:1004E4000A431A6215E03B681B685A6A3B681B7929
:1004F40019460F238B40DB4319463B681B680A40AF
:100504005A623B681B68596A3B681B68FA680A436D
:100514005A6200BF1437BD465DF8047B704700BFC4
:10052400003C0140003802400038014080B483B0F0
:1005340000AF78600B46FB707B685A69FB78012139
:1005440001FA03F35A407B685A6100BF0C37BD4679
:100554005DF8047B7047000080B483B000AF0346AD
:100564000A46FB711346BB71BB79012B30D1FB7971
:100574001F2B09D8324B1A68FB79012101FA03F3C6
:100584002F4913430B6054E0FB791F2B0ED9FB79E1
:100594003F2B0BD82B4B1A68FB7903F01F03012167
:1005A40001FA03F3274913430B6042E0FB793F2B25
:1005B4003FD9FB795F2B3CD8234B1A68FB7903F0B6
:1005C4001F03012101FA03F31F4913430B6030E0B9
:1005D400FB791F2B09D81D4B1A68FB79012101FAFD
:1005E40003F31A4913430B6023E0FB791F2B0ED945
:1005F400FB793F2B0BD8164B1A68FB7903F01F03CA
:10060400012101FA03F3124913430B6011E0FB7952
:100614003F2B0ED9FB795F2B0BD80E4B1A68FB7955
:1006240003F01F03012101FA03F30A4913430B608A
:10063400FFE700BF0C37BD465DF8047B704700BF81
:1006440000E100E004E100E008E100E080E100E016
:1006540084E100E088E100E080B485B000AF0346A7
:100664000A46FB711346BB71FB799B08FB73FB794C
:1006740003F00303BB73BB7BDB00DBB204337B738C
:10068400FB7B1B0103F1604303F564431A68B979EA
:100694007B7B01FA03F31946FB7B1B0103F16043E7
:1006A40003F564430A431A6000BF1437BD465DF87E
:1006B400047B704780B483B000AF0346FB710C4BDE
:1006C4005A69FB79012101FA03F31340002B08D086
:1006D400074B5A69FB79012101FA03F304491343D7
:1006E4004B6100BF0C37BD465DF8047B704700BF0B
:1006F400003C01400D488546AFF300800C480D498D
:100704000D4A002302E0D458C4500433C4188C4268
:10071400F9D30A4A0A4C002301E013600432A242CE
:10072400FBD300F019F8FFF753FDFEE700000120AA
:100734000000002000000020C40700080000002082
:100744001C000020FEE702440346934200D1704798
:1007540003F8011BF9E7000070B50D4D0D4C641B47
:10076400A4100026A64209D10B4D0C4C00F018F839
:10077400641BA4100026A64205D170BD55F8043BA5
:1007840098470136EEE755F8043B98470136F2E7FF
:10079400BC070008BC070008BC070008C007000825
:1007A400F8B500BFF8BC08BC9E467047F8B500BF5A
:0807B400F8BC08BC9E4670472A
:0407BC00B901000877
:0407C0009501000897
:04000005080006F9F0
:00000001FF
