:020000040800F2
:10000000000001205D030008AD030008AD030008F7
:10001000AD030008AD030008AD03000800000000B8
:10002000000000000000000000000000AD03000818
:10003000AD03000800000000AD030008AD03000898
:1000400000000000AD030008AD030008AD03000888
:10005000AD030008AD030008AD030008AD030008C0
:10006000AD030008AD030008AD030008AD030008B0
:10007000AD030008AD030008AD030008AD030008A0
:10008000AD030008AD030008AD0300080000000048
:10009000000000000000000000000000AD030008A8
:1000A000AD030008AD030008AD030008AD03000870
:1000B000AD030008AD030008AD030008AD03000860
:1000C000AD030008AD030008AD030008AD03000850
:1000D000AD030008AD030008AD03000800000000F8
:1000E000AD030008AD030008AD03000800000000E8
:1000F000000000000000000000000000AD03000848
:1001000000000000AD030008AD030008AD030008C7
:1001100000000000000000000000000000000000DF
:10012000AD030008AD030008AD030008AD030008EF
:10013000AD03000800000000000000000000000007
:10014000000000000000000000000000AD030008F7
:10015000AD030008AD030008AD030008AD030008BF
:10016000AD030008AD03000800000000000000001F
:10017000000000000000000000000000000000007F
:10018000000000000000000000000000000000006F
:04019000AD030008B3
:1001940010B5054C237833B9044B13B10448AFF3BD
:1001A40000800123237010BD000000200000000027
:1001B400F803000808B5034B1BB103490348AFF328
:1001C400008008BD0000000004000020F8030008BF
:1001D40080B400AF334B1B6B324A43F0020313630A
:1001E400314B1B68304A23F4803313602E4B1B6859
:1001F4002D4A43F4003313602B4B5B6A2A4A43F0C5
:1002040002035362284B5B68274A43F480735360AC
:10021400254BDB68244A43F48033D360224B1B68AC
:10022400214A23F4802313601F4B1B681E4A43F4A6
:10023400002313601C4B5B6A1B4A43F02003536288
:10024400194B5B68184A43F400735360164BDB6820
:10025400154A43F48023D360124B1B6C114A43F4B8
:1002640000131364114B1B68104A43F400431360DA
:100274000E4B1B680D4A23F4004313600B4B1022F2
:100284005A600A4B5022DA61084B11221A62074B5A
:100294001B68064A43F00103136000BFBD465DF8C6
:1002A400047B7047003802400004024000540040C0
:1002B40080B485B000AF03463960FB7100BF1D4BAD
:1002C4009B6903F00203002BF9D01A4B1B68194AEF
:1002D40043F48073136000BF164B5B6903F00103A2
:1002E400002BF9D0FB79134A5B00136100BF114B5B
:1002F4005B6903F00203002BF9D00E4B9B69FB6092
:1003040000BF0C4B5B6903F08003002BF9D0094B51
:100314001B68084A43F400731360064B19693B6871
:100324005A1C3A60CAB21A7000BF1437BD465DF851
:10033400047B70470054004080B582B000AFFFF7E3
:1003440047FF044BDBB2FB71FB1D19466020FFF72E
:10035400AFFFF9E7100400080D488546AFF30080AD
:100364000C480D490D4A002302E0D458C45004330C
:10037400C4188C42F9D30A4A0A4C002301E01360E2
:100384000432A242FBD300F011F8FFF7D5FFFEE7D9
:100394000000012000000020000000201C040008D0
:1003A400000000201C000020FEE7000070B50D4D89
:1003B4000D4C641BA4100026A64209D10B4D0C4C15
:1003C40000F018F8641BA4100026A64205D170BDE5
:1003D40055F8043B98470136EEE755F8043B984737
:1003E4000136F2E714040008140400081404000899
:1003F40018040008F8B500BFF8BC08BC9E46704756
:0C040400F8B500BFF8BC08BC9E4670476D
:0404100041000000A7
:04041400B901000822
:040418009501000842
:040000050800035D8F
:00000001FF
