:020000040800F2
:1000000000000120D9020008290300082903000884
:100010002903000829030008290300080000000044
:10002000000000000000000000000000290300089C
:100030002903000800000000290300082903000824
:100040000000000029030008290300082903000814
:1000500029030008290300082903000829030008D0
:1000600029030008290300082903000829030008C0
:1000700029030008290300082903000829030008B0
:1000800029030008290300082903000800000000D4
:10009000000000000000000000000000290300082C
:1000A0002903000829030008290300082903000880
:1000B0002903000829030008290300082903000870
:1000C0002903000829030008290300082903000860
:1000D0002903000829030008290300080000000084
:1000E0002903000829030008290300080000000074
:1000F00000000000000000000000000029030008CC
:100100000000000029030008290300082903000853
:1001100000000000000000000000000000000000DF
:1001200029030008290300082903000829030008FF
:10013000290300080000000000000000000000008B
:10014000000000000000000000000000290300087B
:1001500029030008290300082903000829030008CF
:100160002903000829030008000000000000000027
:10017000000000000000000000000000000000007F
:10018000000000000000000000000000000000006F
:040190002903000837
:1001940010B5054C237833B9044B13B10448AFF3BD
:1001A40000800123237010BD000000200000000027
:1001B4007403000808B5034B1BB103490348AFF3AC
:1001C400008008BD00000000040000207403000843
:1001D40080B500AF214B1B6B204A43F0010313632E
:1001E4001F4B1B681E4A43F0200313601C4B1B6803
:1001F4001B4A23F010031360194B1B6A184A43F47B
:1002040080731362164B1B6A154A43F4007313621E
:10021400134B1B6A124A43F480631362104B1B6A2C
:100224000F4A23F0010313620C4B1B6C0B4A43F47B
:10023400003313640B4800F033F80B4B194609489C
:1002440000F018F8094B1946064800F013F8084B5B
:100254001946044800F00EF800BFEEE700380240EB
:1002640000000240004400408C0300089003000892
:100274009403000880B483B000AF7860396000BF95
:100284007B681B6803F08003002BF9D03B68DAB26B
:100294007B685A6000BF0C37BD465DF8047B70472D
:1002A40080B483B000AF78607B68DB6843F00802F9
:1002B4007B68DA607B68DB6843F400527B68DA6051
:1002C4007B6840F6A6629A6000BF0C37BD465DF8B5
:1002D400047B70470D488546AFF300800C480D49F8
:1002E4000D4A002302E0D458C4500433C4188C428D
:1002F400F9D30A4A0A4C002301E013600432A242F3
:10030400FBD300F011F8FFF763FFFEE700000120C4
:100314000000002000000020A003000800000020CE
:100324001C000020FEE7000070B50D4D0D4C641B51
:10033400A4100026A64209D10B4D0C4C00F018F86D
:10034400641BA4100026A64205D170BD55F8043BD9
:1003540098470136EEE755F8043B98470136F2E733
:100364009803000898030008980300089C030008F9
:10037400F8B500BFF8BC08BC9E467047F8B500BF8E
:08038400F8BC08BC9E4670475E
:0C038C004100000042000000430000009F
:04039800B90100089F
:04039C0095010008BF
:04000005080002D914
:00000001FF
