:020000040800F2
:100000000000012075020008C5020008C5020008B2
:10001000C5020008C5020008C50200080000000073
:10002000000000000000000000000000C502000801
:10003000C502000800000000C5020008C502000853
:1000400000000000C5020008C5020008C502000843
:10005000C5020008C5020008C5020008C502000864
:10006000C5020008C5020008C5020008C502000854
:10007000C5020008C5020008C5020008C502000844
:10008000C5020008C5020008C50200080000000003
:10009000000000000000000000000000C502000891
:1000A000C5020008C5020008C5020008C502000814
:1000B000C5020008C5020008C5020008C502000804
:1000C000C5020008C5020008C5020008C5020008F4
:1000D000C5020008C5020008C502000800000000B3
:1000E000C5020008C5020008C502000800000000A3
:1000F000000000000000000000000000C502000831
:1001000000000000C5020008C5020008C502000882
:1001100000000000000000000000000000000000DF
:10012000C5020008C5020008C5020008C502000893
:10013000C5020008000000000000000000000000F0
:10014000000000000000000000000000C5020008E0
:10015000C5020008C5020008C5020008C502000863
:10016000C5020008C50200080000000000000000F1
:10017000000000000000000000000000000000007F
:10018000000000000000000000000000000000006F
:04019000C50200089C
:1001940010B5054C237833B9044B13B10448AFF3BD
:1001A40000800123237010BD000000200000000027
:1001B4001003000808B5034B1BB103490348AFF310
:1001C400008008BD000000000400002010030008A7
:1001D40080B500AF0E4B1B6B0D4A43F00103136354
:1001E4000C4B1B680B4A43F480631360094B1B6878
:1001F400084A23F400631360064B5B69054A83F0E5
:100204002003536142F2107000F006F800BFF3E7D8
:10021400003802400000024080B485B000AF78602E
:10022400114B124A5A60104B00229A600E4B052261
:100234001A600023FB6009E000BF0B4B1B6803F44A
:100244008033002BF9D0FB680133FB60FA687B68CC
:100254009A42F1DB044B00221A6000BF1437BD46FA
:100264005DF8047B704700BF10E000E00024F40058
:100274000D488546AFF300800C480D490D4A002314
:1002840002E0D458C4500433C4188C42F9D30A4A47
:100294000A4C002301E013600432A242FBD300F0B5
:1002A40011F8FFF795FFFEE7000001200000002091
:1002B4000000002030030008000000201C00002083
:1002C400FEE7000070B50D4D0D4C641BA410002614
:1002D400A64209D10B4D0C4C00F018F8641BA41075
:1002E4000026A64205D170BD55F8043B9847013657
:1002F400EEE755F8043B98470136F2E72803000877
:1003040028030008280300082C030008F8B500BFE0
:10031400F8BC08BC9E467047F8B500BFF8BC08BCE2
:040324009E4670473A
:04032800B90100080F
:04032C00950100082F
:040000050800027578
:00000001FF
