:020000040800F2
:100000000000012061020008B1020008B1020008EE
:10001000B1020008B1020008B102000800000000AF
:10002000000000000000000000000000B102000815
:10003000B102000800000000B102000841020008FF
:1000400000000000B1020008B1020008B10200087F
:10005000B1020008B1020008B1020008B1020008B4
:10006000B1020008B1020008B1020008B1020008A4
:10007000B1020008B1020008B1020008B102000894
:10008000B1020008B1020008B1020008000000003F
:10009000000000000000000000000000B1020008A5
:1000A000B1020008B1020008B1020008B102000864
:1000B000B1020008B1020008B1020008B102000854
:1000C000B1020008B1020008B1020008B102000844
:1000D000B1020008B1020008B102000800000000EF
:1000E000B1020008B1020008B102000800000000DF
:1000F000000000000000000000000000B102000845
:1001000000000000B1020008B1020008B1020008BE
:1001100000000000000000000000000000000000DF
:10012000B1020008B1020008B1020008B1020008E3
:10013000B102000800000000000000000000000004
:10014000000000000000000000000000B1020008F4
:10015000B1020008B1020008B1020008B1020008B3
:10016000B1020008B1020008000000000000000019
:10017000000000000000000000000000000000007F
:10018000000000000000000000000000000000006F
:04019000B1020008B0
:1001940010B5054C237833B9044B13B10448AFF3BD
:1001A40000800123237010BD000000200000000027
:1001B400FC02000808B5034B1BB103490348AFF325
:1001C400008008BD0000000004000020FC020008BC
:1001D40080B500AF0A4B1B6B094A43F0010313635C
:1001E400084B1B68074A43F480631360054B1B6884
:1001F400044A23F40063136000F006F800BFFDE72F
:10020400003802400000024080B400AF094B0A4AA3
:100214005A60084B00229A60064B05221A60054B6F
:100224001B68044A43F00203136000BFBD465DF837
:10023400047B704710E000E00024F40080B400AFB9
:10024400054B5B69044A83F02003536100BFBD463C
:100254005DF8047B704700BF000002400D488546EE
:10026400AFF300800C480D490D4A002302E0D45836
:10027400C4500433C4188C42F9D30A4A0A4C0023EC
:1002840001E013600432A242FBD300F011F8FFF73F
:100294009FFFFEE700000120000000200000002076
:1002A4001C030008000000201C000020FEE70000E2
:1002B40070B50D4D0D4C641BA4100026A64209D147
:1002C4000B4D0C4C00F018F8641BA4100026A64239
:1002D40005D170BD55F8043B98470136EEE755F853
:1002E400043B98470136F2E714030008140300089E
:1002F4001403000818030008F8B500BFF8BC08BCD4
:100304009E467047F8B500BFF8BC08BC9E467047CF
:04031400B901000823
:040318009501000843
:04000005080002618C
:00000001FF
