:020000040800F2
:1000000000000120D5020008250300082503000890
:100010002503000825030008250300080000000050
:1000200000000000000000000000000025030008A0
:100030002503000800000000250300082503000830
:100040000000000025030008250300082503000820
:1000500025030008250300082503000825030008E0
:1000600025030008250300082503000825030008D0
:1000700025030008250300082503000825030008C0
:1000800025030008250300082503000800000000E0
:100090000000000000000000000000002503000830
:1000A0002503000825030008250300082503000890
:1000B000A502000825030008250300082503000801
:1000C0002503000825030008250300082503000870
:1000D0002503000825030008250300080000000090
:1000E0002503000825030008250300080000000080
:1000F00000000000000000000000000025030008D0
:10010000000000002503000825030008250300085F
:1001100000000000000000000000000000000000DF
:10012000250300082503000825030008250300080F
:10013000250300080000000000000000000000008F
:10014000000000000000000000000000250300087F
:1001500025030008250300082503000825030008DF
:10016000250300082503000800000000000000002F
:10017000000000000000000000000000000000007F
:10018000000000000000000000000000000000006F
:04019000250300083B
:1001940010B5054C237833B9044B13B10448AFF3BD
:1001A40000800123237010BD000000200000000027
:1001B4007003000808B5034B1BB103490348AFF3B0
:1001C400008008BD00000000040000207003000847
:1001D40080B483B000AF0346FB7197F90730002B5E
:1001E4000BDBFB7903F01F02074997F907305B0922
:1001F400012000FA02F241F8232000BF0C37BD466B
:100204005DF8047B704700BF00E100E080B500AFFB
:100214000A4B1B6B094A43F001031363084B1B6829
:10022400074A43F480631360054B1B68044A23F4B4
:100234000063136000F006F800BFFDE700380240D9
:100244000000024080B500AF144B1B6C134A43F00E
:10025400010313644FF0804340F23F629A624FF00F
:10026400804342F20F72DA624FF0804300225A62F6
:100274004FF080431B684FF0804243F0010313604A
:100284004FF08043DB684FF0804243F00103D360BA
:100294001C20FFF79DFF00BF80BD00BF0038024057
:1002A40080B400AF4FF080431B694FF0804223F0CD
:1002B40001031361054B5B69044A83F02003536116
:1002C40000BFBD465DF8047B704700BF00000240DC
:1002D4000D488546AFF300800C480D490D4A0023B4
:1002E40002E0D458C4500433C4188C42F9D30A4AE7
:1002F4000A4C002301E013600432A242FBD300F055
:1003040011F8FFF783FFFEE7000001200000002042
:100314000000002090030008000000201C000020C2
:10032400FEE7000070B50D4D0D4C641BA4100026B3
:10033400A64209D10B4D0C4C00F018F8641BA41014
:100344000026A64205D170BD55F8043B98470136F6
:10035400EEE755F8043B98470136F2E788030008B6
:1003640088030008880300088C030008F8B500BF60
:10037400F8BC08BC9E467047F8B500BFF8BC08BC82
:040384009E467047DA
:04038800B9010008AF
:04038C0095010008CF
:04000005080002D518
:00000001FF
