:020000040800F2
:10000000000001208D070008DD070008DD0700085B
:10001000DD070008DD070008DD070008000000001C
:10002000000000000000000000000000DD070008E4
:10003000DD07000800000000DD070008DD070008FC
:1000400000000000DD070008DD070008DD070008EC
:10005000DD070008DD070008DD070008DD070008F0
:10006000DD070008DD070008DD070008DD070008E0
:10007000DD070008DD070008DD070008DD070008D0
:10008000DD070008DD070008DD07000800000000AC
:10009000000000000000000000000000DD07000874
:1000A000DD070008DD070008DD070008DD070008A0
:1000B000DD070008DD070008DD070008DD07000890
:1000C000DD070008DD070008DD070008DD07000880
:1000D000DD070008DD070008DD070008000000005C
:1000E000DD070008DD070008DD070008000000004C
:1000F000000000000000000000000000DD07000814
:1001000000000000DD070008DD070008DD0700082B
:1001100000000000000000000000000000000000DF
:10012000DD070008DD070008DD070008DD0700081F
:10013000DD070008000000000000000000000000D3
:10014000000000000000000000000000DD070008C3
:10015000DD070008DD070008DD070008DD070008EF
:10016000DD070008DD0700080000000000000000B7
:10017000000000000000000000000000000000007F
:10018000000000000000000000000000000000006F
:04019000DD0700087F
:1001940010B5054C237833B9044B13B10448AFF3BD
:1001A40000800123237010BD000000200000000027
:1001B4002808000808B5034B1BB103490348AFF3F3
:1001C400008008BD0000000004000020280800088A
:1001D400034613F8012B002AFBD1181A0138704783
:1001E40080B58AB000AF0121012000F05FF9294BEE
:1001F400FB61022387F82130002387F8243005238C
:1002040087F825300F2387F8203007F11C0319469F
:10021400012000F067F90D2387F8203007F11C0353
:100224001946012000F05EF901210E2000F04EF87D
:100234000121194800F001F9174B3B6101237B753B
:1002440001233B750023BB750023FB7500233B761C
:1002540000237B760023BB7607F1100319460E209A
:1002640000F060F801210C4800F003F90B4A3B1D33
:1002740007CA83E807000A4B0A22DA603B1D1846C6
:10028400FFF7A6FF02463B1D1946054800F09EF8FD
:1002940000BFFDE7000402400038004040080008A9
:1002A4000030014080B483B000AF786039607B686F
:1002B4009A683B681340002B01D0012300E000231F
:1002C40018460C37BD465DF8047B704780B483B094
:1002D40000AF03460A46FB711346BB71BB79012B81
:1002E40018D1FB790C2B02D0FB790D2B09D10C4BC7
:1002F4005A6CFB79012101FA03F3094913434B6456
:1003040008E0074B1A6CFB79012101FA03F3044955
:1003140013430B6400BF0C37BD465DF8047B704784
:100324000038024080B485B000AF03463960FB71E9
:100334000023FB603B681B799B00FA681343FB6056
:100344003B685B79012B04D1FB6823F40043FB6019
:1003540014E03B685B79022B04D1FB6843F400434F
:10036400FB600BE03B685B79032B07D1FB6823F44C
:100374000043FB60FB6843F48063FB603B689B794C
:10038400DB00FA681343FB603B68DB79DB02FA6845
:100394001343FB603B681B7A5B00FA681343FB6002
:1003A4003B685B7A1A46FB681343FB603B689B7AA5
:1003B4005B02FA681343FB603B681B68FA681A60C7
:1003C40000BF1437BD465DF8047B704780B584B028
:1003D40000AFF860B9607A6027E000BF0221F868D6
:1003E400FFF760FF0346002BF8D0FB681B6803F49B
:1003F4000063002B0ED0BB681B881A46FB68DA60CA
:100404007B68013B7B607B68013B7B60BB6801339D
:10041400BB600AE0BB681B781A46FB68DA607B683D
:10042400013B7B60BB680133BB607B68002BD4D18C
:1004340000BF00BF1037BD4680BD80B483B000AF9D
:1004440078600B46FB70FB78012B06D17B681B6838
:1004540043F040027B681A6005E07B681B6823F068
:1004640040027B681A6000BF0C37BD465DF8047B10
:10047400704780B483B000AF78600B46FB70FB78A4
:10048400012B06D17B681B6843F480727B681A6079
:1004940005E07B681B6823F480727B681A6000BFE8
:1004A4000C37BD465DF8047B7047000080B483B010
:1004B40000AF03460A46FB711346BB71BB79012B9F
:1004C40008D1074B1A6BFB79012101FA03F30449A4
:1004D40013430B6300BF0C37BD465DF8047B7047C4
:1004E4000038024080B485B000AF03463960FB7128
:1004F4000023FB6000233B813B685B79032B1FD8FF
:100504003B685B791A463B681B795B0002FA03F38C
:10051400FB603B681B681A683B681B791946032318
:100524008B40DB4319463B681B680A401A603B68F2
:100534001B6819683B681B68FA680A431A6070E014
:100544003B685B79042B15D18C4BDA683B681B79CB
:10055400194601238B4089491343CB60874B9A6822
:100564003B681B79194601238B40DB4383491340C5
:100574008B6031E03B685B79052B15D17F4B9A6822
:100584003B681B79194601238B407C4913438B60DC
:100594007A4BDA683B681B79194601238B40DB43AD
:1005A40076491340CB6017E03B685B79062B13D187
:1005B400724B9A683B681B79194601238B406F493B
:1005C40013438B606D4BDA683B681B791946012332
:1005D4008B406A491343CB60694B5B6C684A43F4B4
:1005E400804353643B681B799B08DBB23B723B68D6
:1005F4001B7903F00303DBB27B72FA797B7A9B00ED
:1006040002FA03F15F4A3B7A023342F823105B4B50
:100614001A683B681B79194601238B4057491343D9
:100624000B603B689B791A463B681B795B0002FAB6
:1006340003F3FB603B681B689A683B681B791946A7
:1006440003238B40DB4319463B681B680A409A60CE
:100654003B681B6899683B681B68FA680A439A60A0
:100664003B68DB791A463B681B795B0002FA03F3AB
:10067400FB603B681B68DA683B681B7919460323F7
:100684008B40DB4319463B681B680A40DA603B68D1
:100694001B68D9683B681B68FA680A43DA603B68E0
:1006A4001B7A1A463B681B7902FA03F3FB603B682A
:1006B4001B685A683B681B79194601238B40DB434E
:1006C40019463B681B680A405A603B681B685968B6
:1006D4003B681B68FA680A435A603B685B79022BE3
:1006E40046D13B681B79072B1FD83B685B7A1A46B7
:1006F4003B681B799B0002FA03F3FB603B681B68B1
:100704001A6A3B681B7919460F238B40DB43194651
:100714003B681B680A401A623B681B68196A3B689D
:100724001B68FA680A431A6222E03B685B7A1A463D
:100734003B681B7903F003039B0002FA03F3FB609D
:100744003B681B685A6A3B681B7903F003030F215B
:1007540001FA03F3DB4319463B681B680A405A62FB
:100764003B681B68596A3B681B68FA680A435A620B
:1007740000BF1437BD465DF8047B7047003C014060
:1007840000380240003801400D488546AFF3008030
:100794000C480D490D4A002302E0D458C4500433D8
:1007A400C4188C42F9D30A4A0A4C002301E01360AE
:1007B4000432A242FBD300F011F8FFF711FDFEE76B
:1007C4000000012000000020000000205C08000858
:1007D400000000201C000020FEE7000070B50D4D55
:1007E4000D4C641BA4100026A64209D10B4D0C4CE1
:1007F40000F018F8641BA4100026A64205D170BDB1
:1008040055F8043B98470136EEE755F8043B984702
:100814000136F2E754080008540800085408000898
:1008240058080008F8B500BFF8BC08BC9E467047DD
:0C083400F8B500BFF8BC08BC9E46704739
:0C08400048656C6C6F20576F726C640090
:08084C0088F9FF7F01000000A4
:04085400B9010008DE
:0408580095010008FE
:040000050800078D5B
:00000001FF
